:1000000003C1000032C1000030C100002EC1000059
:100010002CC100002AC1000028C1000026C1000038
:1000200024C100000C94800A0C94800A0C94800A6D
:100030001CC100000C94AD0B18C1000016C10000DB
:1000400014C100000C94EA0C10C100000EC10000A5
:100050000CC100000AC1000008C100000C94400956
:1000600004C100000C94570A0C942E0AFEC0000034
:10007000FCC00000FAC00000F8C00000F6C000009C
:100080000C94BD0CF2C00000F0C00000EEC00000F7
:10009000ECC00000EAC00000E8C000000C948A0A2E
:1000A000E4C00000E2C000000C94900CDEC0000030
:1000B000DCC00000DAC00000D8C000000C94630C63
:1000C000D4C00000D2C00000D0C000000C94050ACB
:1000D0000C94DC09CAC000000C94B3090C948A0982
:1000E000C4C00000000020002300260029002C00CE
:1000F0002F00320000010000030106010901000089
:100100000A0B02090C0D0E08070304010000000091
:1001100000000000000000000000000000000000DF
:10012000000000000000000000001211100000009C
:1001300000000000000000000000000000000000BF
:100140000000000000002100240027002A002D00EC
:100150003000330001010000040107010A01000022
:100160002200250028002B002E003100340002015F
:100170000000050108010B01050505050705080834
:100180000808020202020A0A080804040404010121
:100190000101010101010303030303030303040736
:1001A00007070C0C0C0C0C0C0C0C020202020606CD
:1001B0000606060606060B0B0B0B0B0B0B0B0102C0
:1001C0001020200808102040102040800201020169
:1001D0000804020101020408102040808040201021
:1001E000080402018004020180402010080402017A
:1001F00008040201010204081020408001020408E2
:1002000010204080620D5C0D11241FBECFEFD1E2A3
:10021000DEBFCDBF00E00CBF13E0A0E0B2E0EAE338
:10022000F1E300E00BBF02C007900D92A63FB107BB
:10023000D9F728E0A6EFB3E001C01D92AD3EB207AA
:10024000E1F711E0C3E0D1E000E006C02197010929
:10025000802FFE010E945F16C230D10780E00807A0
:10026000A9F70E943A0E0C948C18CACE2091D005A2
:1002700081E0213208F044C08091AC058111FCCFAF
:100280008091CF0592E09093AC0591E09093AB05FF
:100290009FEF9093AA051092A9052093A805AFEAB5
:1002A000B5E0E8E8F5E090E0291331C01092870549
:1002B00090918705880F892B80938705809186050B
:1002C000813049F510928605809187058093BB00A7
:1002D0008091BC0083FDF8CF85EC8093BC008091B9
:1002E000AC058230E1F38091AA058F3FB1F0809197
:1002F000AA058032A1F08091AA05803391F084E0B4
:100300001092AE051092D0051092AD0508953D9162
:1003100031939F5FC9CF85EEE0CF80E0F1CF82E0DF
:10032000EFCF83E0EDCF8150823108F05AC0E82F43
:10033000F0E08827E156FE4F8F4F0C945F16BF0107
:10034000C301B101B701BB01F101C601CC01D0016C
:10035000D601DA01DE01E401E801F101EC01F2016C
:10036000F601809180008F778093800008958091BE
:1003700080008F7DF9CF80918000877FF5CF84B595
:100380008F7784BD089584B58F7DFBCF8091B000B9
:100390008F778093B00008958091B0008F7DF9CF62
:1003A000809190008F7780939000089580919000C5
:1003B0008F7DF9CF80919000877FF5CF8091A0004D
:1003C0008F778093A00008958091A0008F7DF9CF52
:1003D0008091A000877FF5CF809120018F77809357
:1003E00020010895809120018F7DF9CF8091200117
:1003F000877FF5CFCF93DF93282F30E0F901E250CC
:10040000FF4F8491F901E254FE4FD491F901E8586D
:10041000FE4FC491CC2399F0811185DFEC2FF0E0E1
:10042000EE0FFF1FEC51FF4FA591B491EC91ED231E
:1004300081E090E009F480E0DF91CF91089580E0C1
:1004400090E0FACF1F93CF93DF93282F30E0F9018C
:10045000E250FF4F8491F901E254FE4FD491F9012B
:10046000E858FE4FC491CC23A1F0162F81115BDF19
:10047000EC2FF0E0EE0FFF1FE25AFE4FA591B49172
:100480008FB7F894EC91111108C0D095DE23DC935E
:100490008FBFDF91CF911F910895DE2BF8CFCF93BF
:1004A000DF9390E0FC01E254FE4F249188589E4F68
:1004B000FC0184918823D1F090E0880F991FFC0102
:1004C000EC5BFE4FA591B491FC01E25AFE4FC59141
:1004D000D49161110EC09FB7F8948C91E22FE095F2
:1004E0008E238C932881E223E8839FBFDF91CF91F5
:1004F00008958FB7F894EC91E22BEC938FBFF6CF71
:100500003FB7F8948091820590918305A09184056E
:10051000B091850526B5A89B05C02F3F19F001961F
:10052000A11DB11D3FBFBA2FA92F982F8827BC014D
:10053000CD01620F711D811D911D42E0660F771F75
:10054000881F991F4A95D1F708958F929F92AF9275
:10055000BF92CF92DF92EF92FF926B017C01D0DFCE
:100560004B015C01C114D104E104F104B1F0C8DF16
:10057000681979098A099B09683E734081059105CC
:1005800088F321E0C21AD108E108F10888EE880E4C
:1005900083E0981EA11CB11CE5CFFF90EF90DF9087
:1005A000CF90BF90AF909F908F9008952FB7F89401
:1005B00060917E0570917F05809180059091810505
:1005C0002FBF08952F923F924F925F926F927F922A
:1005D0008F929F92AF92BF92CF92DF92EF92FF9253
:1005E0000F931F93CF93DF9300D01F921F92CDB72D
:1005F000DEB76A01F12CE12C6115710581059105C9
:10060000D1F4C701BA010F900F900F900F900F9087
:10061000DF91CF911F910F91FF90EF90DF90CF90DE
:10062000BF90AF909F908F907F906F905F904F9012
:100630003F902F908ACF9B01AC0160E472E48FE081
:1006400090E00E94911529013A01E3ECF1E0249138
:1006500029838DE791E0FC012491E22FF0E0EE0F79
:10066000FF1FE25AFE4F05911491FC018491E82F7F
:10067000F0E0EE0FFF1FEC5BFE4FA591B4918C9163
:10068000F9818F2B8C9392DF4B015C01D301C20166
:10069000B695A795979587959B838A831C01220C15
:1006A000331C220C331C25E0221A3108F201E81B0E
:1006B000F90BFD83EC833F01660C771C660C771CFD
:1006C000F5E06F1A71085980509470DF6819790944
:1006D0008A099B096C157D058E059F05D8F4F801E4
:1006E0008081F9818F2BF80180832A813B81223020
:1006F000310518F0C1010197F1F7F80180818521DA
:1007000080832C813D8122303105F8F2C3010197AD
:10071000F1F7DBCF0F900F900F900F900F90DF91BC
:10072000CF911F910F91FF90EF90DF90CF90BF90EE
:10073000AF909F908F907F906F905F904F903F9081
:100740002F900895089508950895AF92BF92CF9283
:10075000DF92EF92FF920F931F93CF93DF936C0181
:100760007B018B01040F151FEB015E01AE18BF0862
:10077000C017D10759F06991D601ED91FC91019014
:10078000F081E02DC6011995892B79F7C501DF911C
:10079000CF911F910F91FF90EF90DF90CF90BF907E
:1007A000AF900895FC01A089B1898C91A689B78981
:1007B00082FD0FC09C91818D8F5F8F73228D821778
:1007C00049F0A18DAE0FBF2FB11D5D969C93818F17
:1007D00008958C910895FC01538D448D252F30E0B0
:1007E000842F90E0821B930B541710F0CF9608953E
:1007F00001970895FC01918D828D981761F0A28D6B
:10080000AE0FBF2FB11D5D968C91928D9F5F9F7330
:10081000928F90E008958FEF9FEF0895FC01918DE6
:10082000828D981731F0828DE80FF11D858D90E053
:1008300008958FEF9FEF0895FC01918D228D892FF0
:1008400090E0805C9F4F821B91098F7399270895D8
:1008500081ED95E0F1DF21E0892B09F420E0822F82
:1008600008958EE696E0E8DF21E0892B09F420E088
:10087000822F08958BE097E0DFDF21E0892B09F4D8
:1008800020E0822F0895FC01A48DA80FB92FB11D7F
:10089000A35ABF4F2C91848D90E001968F739927B6
:1008A000848FA689B7892C93A089B1898C91837094
:1008B00080648C93938D848D981306C00288F3898D
:1008C000E02D80818F7D80830895EF92FF920F93BA
:1008D0001F93CF93DF93EC0181E0888F9B8D8C8DEC
:1008E00098131AC0E889F989808185FF15C09FB7E0
:1008F000F894EE89FF896083E889F98980818370A3
:10090000806480839FBF81E090E0DF91CF911F9151
:100910000F91FF90EF900895F62E0B8D10E00F5F72
:100920001F4F0F731127E02E8C8D8E110BC00FB649
:1009300007FCFACFE889F989808185FFF5CFCE01E0
:10094000A2DFF2CFEB8DEC0FFD2FF11DE35AFF4F2D
:10095000F0829FB7F8940B8FEA89FB8980818062CF
:10096000D0CFCF93DF93EC01888D8823B1F0AA8993
:10097000BB89E889F9898C9185FD03C0808186FD5A
:100980000CC00FB607FCF7CF8C9185FFF2CF8081AA
:1009900085FFEDCFCE0177DFEACFDF91CF910895CC
:1009A00080E090E0892B21F065DF81110E9400003A
:1009B00080E090E0892B49F080E090E0892B29F0DD
:1009C0000E94000081110E94000080E090E0892BCD
:1009D00021F047DF81110E94000080E090E0892B28
:1009E00021F036DF81110C94000008950895E09104
:1009F000710580917005E81730F4F0E0E65BFA4F7E
:100A0000808190E008958FEF9FEF08959091710598
:100A1000809170052FEF3FEF981748F4E92FF0E031
:100A2000E65BFA4F208130E09F5F90937105C9012A
:100A300008958091700590917105891B990B089517
:100A400085ED8093BC008091BC0084FDFCCF1092AA
:100A5000AC05089520912705260F3327331F213237
:100A60003105ECF42091AC05FC0190E080E02430ED
:100A700069F082E00895A09127052191AC01495FBA
:100A80005A4FA40FB52FB11D2C930196861798F3DA
:100A900080912705680F6093270580E0089581E025
:100AA0000895CF92DF92EF92FF920F931F93CF930F
:100AB000DF937C01CB018A012091AD05222389F0CF
:100AC000EB016B01C40ED51ECC15DD0561F06991FB
:100AD000D701ED91FC910190F081E02DC7011995AE
:100AE000F3CF642FB7DFC801DF91CF911F910F9132
:100AF000FF90EF90DF90CF900895CF93DF931F92F8
:100B0000CDB7DEB769832091AD052223F9F020919E
:100B1000D005203258F021E030E0FC0133832283FD
:100B200090E080E00F90DF91CF9108958091AE0525
:100B3000E82FF0E0E155FA4F998190838F5F809321
:100B4000AE058093D00581E090E0ECCF61E0CE016E
:100B5000019680DFF8CFCF93DF93EC0181E08093A3
:100B6000AD058EE38093CF051092AE051092D005AF
:100B7000688188EA97E0C1DF698188EA97E0BDDF94
:100B8000DF91CF9173CBCF93DF931F921F92CDB79D
:100B9000DEB790E899838A83CE010196DCDF0F905F
:100BA0000F90DF91CF910895CF93DF931F921F9203
:100BB000CDB7DEB780E489836A83CE010196CBDFAF
:100BC00081E090E00F900F90DF91CF910895CF9347
:100BD000C62F91E09093AD0592E69093CF051092C9
:100BE000AE051092D005682F88EA97E086DF6C2F5B
:100BF00088EA97E082DFCF9139CBCF93DF93D62F6E
:100C0000C42F682F84E0E3DF6D2F83E0E0DF6C2FDB
:100C100082E0DF91CF91DBCF90E080E00895CF9329
:100C2000DF93DB01EA01FC01EA56FB4F40815CE007
:100C3000589F9001599F300D112447FF1CC01196F9
:100C40001C921E9280818F5F80838081A901480F52
:100C5000511D87FD5A9557FF03C080818C30ACF041
:100C60008D919C911197049680349C4938F18D9117
:100C70009C91049625C08081A901480F511D87FDD4
:100C80005A9557FFDFCF8081DDCF8D919C914081B8
:100C9000240F311D47FD3A95D901AA0FBB1FA20FA2
:100CA000B31FAA5FBB4F11962D913C91820F931FEA
:100CB000998388838081DF91CF91089580E49CE9B6
:100CC000998388838FEF8083F6CF60E083E0BADB7F
:100CD00061E086E0B7DB60E087E0B4CBFB01019028
:100CE0000020E9F73197AF01461B570BDC01ED916E
:100CF000FC910280F381E02D1994CF93DF93FC01E6
:100D000044815581608171818BE097E01EDDEC01AB
:100D100062EB72E08BE097E0E1DF8C0F9D1FDF91CB
:100D2000CF91089508958F929F92AF92BF92EF92C4
:100D3000FF920F931F93CF93DF93CDB7DEB7A197A9
:100D40000FB6F894DEBF0FBECDBF7C01FA01CB0118
:100D500019A2223008F42AE08E010F5D1F4F822E67
:100D6000912CB12CA12CBF01A50194010E949115D9
:100D7000F901CA016A3004F5605DD8016E938D01F6
:100D8000232B242B252B79F790E080E0109719F086
:100D9000BD01C701A3DFA1960FB6F894DEBF0FBE59
:100DA000CDBFDF91CF911F910F91FF90EF90BF903A
:100DB000AF909F908F900895695CDFCFCF92DF92C4
:100DC000EF92FF92CF93DF936B017C016DE28BE09A
:100DD00097E07BDDEC0144275527BA014C195D09EA
:100DE0006E097F092AE08BE097E09DDF8C0F9D1F45
:100DF000DF91CF91FF90EF90DF90CF900895CF9348
:100E0000DF93BC018BE097E069DFEC0162EB72E0FD
:100E10008BE097E063DF8C0F9D1FDF91CF910895EA
:100E20000F931F93CF93DF93EC01888199810097F3
:100E300059F02A813B812617370730F081E0DF9196
:100E4000CF911F910F9108958B016F5F7F4F0E948B
:100E5000A017009759F0998388831B830A832C81FC
:100E60003D81232B59F7FC011082E8CF80E0E7CFCA
:100E7000EF92FF920F931F93CF93DF93611571054C
:100E800041F480E0DF91CF911F910F91FF90EF909F
:100E9000089541155105A9F07B01EC010C811D81DC
:100EA000040F151FB801BCDF882359F3288139814D
:100EB0008C819D81B701820F931F0E9485181D832D
:100EC0000C8381E0DFCFCF93DF93EC0188819981A0
:100ED000009711F00E941717198218821D821C8238
:100EE0001B821A82DF91CF910895CF93DF93EC019B
:100EF000FB0101900020E9F73197AF01461B570B2A
:100F0000B7DF811102C0CE01DEDFCE01DF91CF91CC
:100F10000895CF93DF93EC01FB01448155816081FB
:100F20007181A6DF811102C0CE01CDDFCE01DF913C
:100F3000CF910895EF92FF920F931F93CF93DF937A
:100F4000EC017B018A01BA016BDF81110AC0CE017D
:100F5000BADFCE01DF91CF911F910F91FF90EF90FB
:100F600008951D830C83B701888199810E9485189B
:100F7000F0CFFB0101900020E9F73197AF01461B4C
:100F8000570BD8CF0F931F93CF93DF93CDB7DEB717
:100F9000A2970FB6F894DEBF0FBECDBF8C01CB0178
:100FA000BA01F80111821082138212821582148212
:100FB0002AE0AE014F5F5F4F0E942C14BE016F5FAD
:100FC0007F4FC801D6DFA2960FB6F894DEBF0FBEE2
:100FD000CDBFDF91CF911F910F9108950F931F9374
:100FE000CF93DF93CDB7DEB762970FB6F894DEBF2D
:100FF0000FBECDBF8C01CB01F8011182108213828C
:101000001282158214824AE0BE016F5F7F4F0E94F8
:101010002214BE016F5F7F4FC801ABDF62960FB62F
:10102000F894DEBF0FBECDBFDF91CF911F910F911E
:1010300008950F931F93CF93DF931F921F92CDB705
:10104000DEB78C0181E09FDD8BE39FE10197F1F733
:1010500080E889838A83CE0101967DDD8091040238
:10106000909105021816190694F0809177059091D9
:101070007805C39764F4F8014481558160817181DA
:1010800088EB97E062DB64EB72E0C80172DF0F90DF
:101090000F90DF91CF911F910F910895CF93DF9320
:1010A000EC01FB018617970741F0608171816115A2
:1010B000710539F0448155813DDFCE01DF91CF913B
:1010C000089501DFFACFFC0111821082138212828F
:1010D00015821482E3CFFC011182108213821282E6
:1010E00015821482FB0101900020E9F73197AF01CE
:1010F000461B570B1FCFFC0180819181009711F097
:101100000C9417170895CF93DF9300D000D0CDB77C
:10111000DEB765EB72E082EC97E02BDF82EC97E0C4
:10112000ECDD62EC77E0CE010196CDDFCE010196D9
:1011300080DFCE010196DFDF26960FB6F894DEBF82
:101140000FBECDBFDF91CF910895CF93DF9300D035
:1011500000D0CDB7DEB780910402909105020097D0
:1011600091F584EC92E04BDE40E060E08FEF45DDEE
:1011700060ED72E0CE010196AEDFCE01019659DF3F
:10118000CE010196B8DF68EE73E080E090E0DDD933
:10119000809104029091050201969093050280933C
:1011A0000402809104029091050201969093050239
:1011B0008093040226960FB6F894DEBF0FBECDBF13
:1011C000DF91CF910895029761F740E060E080E001
:1011D00014DD8091BD078B7F8093BD078860D3DCD1
:1011E000E0CFCF92DF92EF92FF92CF93DF9300D0C8
:1011F00000D0CDB7DEB76A017B01BC01CE010196FC
:1012000062DFCE01019615DFCE01019674DF20E08A
:1012100030E04AE754E4C701B6010E94C1140E94BD
:10122000201693D926960FB6F894DEBF0FBECDBF19
:10123000DF91CF91FF90EF90DF90CF900895CF9303
:10124000DF9300D000D0CDB7DEB720917205222306
:1012500071F0BC01CE01019636DF40E050E060EA5B
:1012600070E4CE010196BDDFCE01019644DF2696E3
:101270000FB6F894DEBF0FBECDBFDF91CF910895BA
:101280001F920F920FB60F9211242F933F938F93BB
:101290009F93AF93BF9380917E0590917F05A0911E
:1012A0008005B091810530917D0523E0230F2D3716
:1012B00058F50196A11DB11D20937D0580937E05F3
:1012C00090937F05A0938005B0938105809182055E
:1012D00090918305A0918405B09185050196A11D8B
:1012E000B11D8093820590938305A0938405B093EC
:1012F0008505BF91AF919F918F913F912F910F9055
:101300000FBE0F901F90189526E8230F0296A11D7F
:10131000B11DD2CF1F920F920FB60F9211240BB6B0
:101320000F922F933F934F935F936F937F938F937E
:101330009F93AF93BF93EF93FF9381ED95E0A3DA73
:10134000FF91EF91BF91AF919F918F917F916F919D
:101350005F914F913F912F910F900BBE0F900FBE59
:101360000F901F9018951F920F920FB60F92112495
:101370000BB60F922F933F934F935F936F937F938F
:101380008F939F93AF93BF93EF93FF9381ED95E07E
:1013900009DAFF91EF91BF91AF919F918F917F916A
:1013A0006F915F914F913F912F910F900BBE0F90D6
:1013B0000FBE0F901F9018951F920F920FB60F92AD
:1013C00011240BB60F922F933F934F935F936F931C
:1013D0007F938F939F93AF93BF93EF93FF938EE68B
:1013E00096E051DAFF91EF91BF91AF919F918F916C
:1013F0007F916F915F914F913F912F910F900BBE15
:101400000F900FBE0F901F9018951F920F920FB65E
:101410000F9211240BB60F922F933F934F935F932C
:101420006F937F938F939F93AF93BF93EF93FF93AC
:101430008EE696E0B7D9FF91EF91BF91AF919F9162
:101440008F917F916F915F914F913F912F910F906D
:101450000BBE0F900FBE0F901F9018951F920F920A
:101460000FB60F9211240BB60F922F933F934F9309
:101470005F936F937F938F939F93AF93BF93EF93FC
:10148000FF938BE097E0FFD9FF91EF91BF91AF9170
:101490009F918F917F916F915F914F913F912F918C
:1014A0000F900BBE0F900FBE0F901F9018951F92BC
:1014B0000F920FB60F9211240BB60F922F933F93FA
:1014C0004F935F936F937F938F939F93AF93BF934C
:1014D000EF93FF938BE097E065D9FF91EF91BF9178
:1014E000AF919F918F917F916F915F914F913F91BC
:1014F0002F910F900BBE0F900FBE0F901F9018955D
:101500001F920F920FB60F9211240F900FBE0F90E3
:101510001F9018951F920F920FB60F9211240BB6C1
:101520000F922F933F934F935F936F937F938F937C
:101530009F93AF93BF93EF93FF938091B900887F00
:10154000803609F44CC008F03FC0883209F4A8C0C6
:1015500028F5803109F49CC0C8F4882309F4FAC046
:10156000883009F495C0FF91EF91BF91AF919F91A1
:101570008F917F916F915F914F913F912F910F903C
:101580000BBE0F900FBE0F901F901895883109F475
:1015900087C0803241F78093AA0514C0803409F4D3
:1015A0009CC040F48033B9F38833E9F68093AA05F0
:1015B00085ECAFC0803509F484C0883509F495C046
:1015C000883489F63DDACFCF883909F48CC038F5F4
:1015D000883729F050F4883611F0803721F683E0FF
:1015E0008093AC051092490557C0883809F47BC038
:1015F000803919F0803809F0B6CF809149058032E2
:1016000008F071C0E091490581E08E0F8093490593
:101610008091BB00F0E0E75DFA4F80833DC0803BE6
:1016200039F0E0F4803A09F479C0883A09F09BCFA8
:1016300084E08093AC051092280510922705E09174
:101640006E05F0916F0519958091270581110FC0E6
:1016500081E0809327051092070509C0803C09F4BA
:10166000A7CF883C09F4A4CF883B09F07CCFE09158
:10167000280581E08E0F80932805F0E0E95FFA4F9E
:1016800080818093BB00909128058091270529C017
:10169000809187058093BB0085EC8093BC0063CF6D
:1016A0009091A9058091A805981758F5E091A90592
:1016B00081E08E0F8093A905F0E0E857FA4F808112
:1016C000E9CFE091A90581E08E0F8093A905809173
:1016D000BB00F0E0E857FA4F80839091A905809114
:1016E000A8059817C8F285E8D8CFE091A90581E050
:1016F0008E0F8093A9058091BB00F0E0E857FA4F68
:1017000080838091AB0581115DCF81E08093860558
:1017100084EA8093BC001092AC0525CF85EC8093C1
:10172000BC001092AC0580914905803230F4E09104
:101730004905F0E0E75DFA4F10826091490570E0DD
:10174000E0916C05F0916D0589E295E01995109294
:10175000490509CF1092AA0535CF1F920F920FB6F7
:101760000F9211240BB60F920F931F932F933F9359
:101770004F935F936F937F938F939F93AF93BF9399
:10178000CF93EF93FF9382E00E94FA01C82F8091DC
:10179000A0049091A10401969093A1048093A004C9
:1017A00080910605843618F085E080939B04809133
:1017B0009B04833009F444C0C0F48230B9F1FF9136
:1017C000EF91CF91BF91AF919F918F917F916F9149
:1017D0005F914F913F912F911F910F910F900BBEF1
:1017E0000F900FBE0F901F901895843009F441C0E0
:1017F000853029F70E94D60200919C0410919D0427
:1018000020919E0430919F04601B710B820B930BFF
:10181000693C71058105910508F44EC010920605DA
:101820001092A1041092A00482E020C0C111C7CF81
:10183000109206051092A1041092A00483E016C035
:10184000C13009F0BCCF8091A0049091A104E09137
:10185000060591E09E0F90930605F0E0E656FB4FDB
:1018600080871092A1041092A00484E080939B04CE
:10187000A6CF8091A0049091A104C1110BC0E0916A
:10188000060591E09E0F90930605F0E0E656FB4FAB
:101890008087D0CF8536910508F491CF85E080937D
:1018A0009B040E94D60260939C0470939D048093D5
:1018B0009E0490939F0483CFC11181CF1092A10405
:1018C0001092A0047CCF1F920F920FB60F9211249A
:1018D0000BB60F922F933F934F935F936F937F932A
:1018E0008F939F93AF93BF93EF93FF9348E251E0A1
:1018F00064E271E090E080E092D9FF91EF91BF91B6
:10190000AF919F918F917F916F915F914F913F9197
:101910002F910F900BBE0F900FBE0F901F90189538
:101920001F920F920FB60F9211240BB60F922F93A6
:101930003F934F935F936F937F938F939F93AF9357
:10194000BF93EF93FF9348EA50E064EA70E083E0CE
:1019500090E065D9FF91EF91BF91AF919F918F91E9
:101960007F916F915F914F913F912F910F900BBE9F
:101970000F900FBE0F901F9018951F920F920FB6E9
:101980000F9211240BB60F922F933F934F935F93B7
:101990006F937F938F939F93AF93BF93EF93FF9337
:1019A00048E950E064E970E082E090E038D9FF91C6
:1019B000EF91BF91AF919F918F917F916F915F91C7
:1019C0004F913F912F910F900BBE0F900FBE0F9034
:1019D0001F9018951F920F920FB60F9211240BB6FD
:1019E0000F922F933F934F935F936F937F938F93B8
:1019F0009F93AF93BF93EF93FF9348E850E064E861
:101A000070E081E090E00BD9FF91EF91BF91AF9131
:101A10009F918F917F916F915F914F913F912F9106
:101A20000F900BBE0F900FBE0F901F901895CF9286
:101A3000DF92EF92FF920F931F93E82FF92F05C0CB
:101A4000015011092109310961F190819623941700
:101A5000B9F305C0015011092109310911F1908133
:101A600096239413F7CFC12CD12CE12CF12C0AC072
:101A70008FEFC81AD80AE80AF80A0C151D052E05BA
:101A80003F0579F080818623841791F36C2D7D2D9D
:101A90008E2D9F2D1F910F91FF90EF90DF90CF9093
:101AA000089560E070E080E090E01F910F91FF905A
:101AB000EF90DF90CF90089588EC97E01CDB82ECEC
:101AC00097E019CBE1EDF5E01382128288EE93E006
:101AD000A0E0B0E084839583A683B78326E832E054
:101AE0003183208345E351E05587448744E351E047
:101AF0005787468740E351E0518B408B41E351E0EB
:101B0000538B428B42E351E0558B448B46E351E0CB
:101B1000578B468B118E128E138E148EEEE6F6E0E6
:101B20001382128284839583A683B78331832083B3
:101B300045ED50E05587448744ED50E05787468790
:101B400040ED50E0518B408B41ED50E0538B428B88
:101B500042ED50E0558B448B46ED50E0578B468B61
:101B6000118E128E138E148EEBE0F7E01382128228
:101B700084839583A683B7833183208325EC30E06B
:101B80003587248724EC30E03787268720EC30E047
:101B9000318B208B21EC30E0338B228B22EC30E038
:101BA000358B248B26EC30E0378B268B118E128EF2
:101BB000138E148EE8EAF7E01382128284839583F1
:101BC000A683B78388E992E09183808381E090E0E7
:101BD0009093CF078093CE071092D0081092D1082F
:101BE0001092D2081092D3081092D4081092D508FF
:101BF0001092D6081092D7081092D8081092D908DF
:101C00001092DA081092DB081092DC081092DD08BE
:101C10001092DF081092DE081092E0081092E1089E
:101C20001092E2081092E3081092E4081092E5087E
:101C30001092E6081092E7081092E808E8EBF7E047
:101C4000138212828AEA92E09183808384E690E094
:101C50009093B7078093B6079093B5078093B40726
:101C600064EB72E082EC97E036DA6DED72E088ECBE
:101C700097E031CACF93DF93CDB7DEB762970FB647
:101C8000F894DEBF0FBECDBF789484B5826084BD6A
:101C900084B5816084BD85B5826085BD85B5816070
:101CA00085BD80916E00816080936E0010928100EE
:101CB00080918100826080938100809181008160A9
:101CC000809381008091800081608093800080916A
:101CD000B10084608093B1008091B00081608093F6
:101CE000B00080919100826080939100809191007A
:101CF000816080939100809190008160809390003A
:101D00008091A10082608093A1008091A1008160F8
:101D10008093A1008091A00081608093A0008091B9
:101D20002101826080932101809121018160809353
:101D300021018091200181608093200180917A00AF
:101D4000846080937A0080917A00826080937A0028
:101D500080917A00816080937A0080917A00806817
:101D600080937A001092C10010927205E0911B07D7
:101D7000F0911C0712E01083E0911707F09118070B
:101D80001082E0911907F0911A078FEC808310926E
:101D90002307E0911F07F091200786E08083E09100
:101DA0001D07F0911E07808180618083E0911D07EF
:101DB000F0911E07808188608083E0911D07F0917B
:101DC0001E07808180688083E0911D07F0911E07C7
:101DD00080818F7D808360E083E00E944F0260E01D
:101DE00086E00E944F0261E087E00E944F020E945D
:101DF000650682EE92E003D867EF72E0CE010196AD
:101E00006AD968EC77E0CE01019683D8BC0182ECF8
:101E100097E044D9CE0101966ED9109271051092C7
:101E200070051092AE051092D0051092AC0581E0BD
:101E30008093AB051092860561E084E10E94220246
:101E400061E085E10E9422028091B9008E7F80933B
:101E5000B9008091B9008D7F8093B90088E48093A8
:101E6000B80085E48093BC0083EA93E090936F050B
:101E700080936E0584EA93E090936D0580936C05E2
:101E80008091BC07982F98609093BC071093C0076F
:101E90001092C107EBE3FDE03197F1F788620E94F1
:101EA000C3058BE496E40197F1F78091BC0780624B
:101EB0000E94C30583E592E00197F1F78091BC078A
:101EC00080620E94C3058091BC0780620E94C305A6
:101ED00084E08093BD078CE00E94C30581E00E94EE
:101EE000C3058BE39FE10197F1F71093BE0786E0EE
:101EF0000E94C30560E080E00E94E70560E081E0A9
:101F00000E94E7056AEA88E00E94E7054FEF6FEF5D
:101F10008FEF0E94FD0582EC97E00E947D0662EC47
:101F200077E0CE010196CFD840E050E060E87FE353
:101F3000CE01019656D9CE010196DDD882EC97E00C
:101F40000E947D0664EB72E082EC97E012D88091EB
:101F50000402909105020196909305028093040279
:101F600084E093E00E94FF0653E0652E712C0091FF
:101F7000060210910702023011050CF046C0E090F5
:101F80007905F0907A051E141F04ACF13CE1A32EF4
:101F900032E0B32E4EE0842E42E0942EF5016191A2
:101FA00071915F0188EE93E077D66B01F401619146
:101FB00071914F01072E000C880B990BA6010E940E
:101FC000E202C601880F991F880F991FB30164D6DA
:101FD000072E000C880B990B0E94A502FAE2AF169F
:101FE000F2E0BF06D9F68FEFE81AF80AF0927A0508
:101FF000E0927905C4CF10927A05109279050F5FAF
:102000001F4F109307020093060260917B057091A9
:102010007C058091B4079091B507861797070CF45B
:102020003EC0CE010D960E94EE07BE01635F7F4F5A
:10203000CE01079648D866E173E0CE0107960E946C
:102040007507BC01CE0101963ED8CE01019653D84A
:10205000CE01079650D8CE010D964DD8609104025E
:1020600070910502CE010D960E94EE07BE01635FDE
:102070007F4FCE01079627D86FE173E0CE01079618
:102080000E947507BC01CE0101961DD8CE010196B4
:1020900032D8CE0107962FD8CE010D962CD880913C
:1020A0007B0590917C05181619060CF44BC3209102
:1020B000040230910502233031050CF043C364EB78
:1020C00072E08BE097E00E946E0680E393E00E944E
:1020D000FF068CE393E00E94FF0615D81092780566
:1020E0001092770570E060E0CE010D960E94EE0739
:1020F000BE01635F7F4FCE0107960E94630867E4CD
:1021000073E0CE0107960E947507BC01CE010196CF
:102110000E946308CE0101960E947B08CE010796BB
:102120000E947B08CE010D960E947B086091770586
:10213000709178058091B6079091B7076817790775
:102140000CF0E1C2CE010D960E94EE07BE01635F66
:102150007F4FCE0107960E94630860E573E0CE01D1
:1021600007960E947507BC01CE0101960E94630884
:10217000CE0101960E947B08CE0107960E947B0843
:10218000CE010D960E947B0886E00E94FA0101971D
:1021900009F041C090E899839A83CE0101960E948C
:1021A000AB056AE673E082EC97E00E94B90762EC47
:1021B00077E0CE0101960E946308CE0101963FD8D8
:1021C000CE0101960E947B08E0E8E98380EC8A83D7
:1021D000CE0101960E94AB0569E773E082EC97E0BF
:1021E0000E94B90762EC77E0CE0101960E94630875
:1021F000CE01019624D8CE0101960E947B0861E0B1
:1022000086E00E94220260E083E00E942202109297
:1022100001021092000260E086E00E94220261E06A
:1022200083E00E94220260E087E00E94220264E6CE
:1022300070E080E090E00E94A50280910002909101
:102240000102892B09F049C2109278051092770596
:1022500069E873E0CE0101960E946B08CE010196F9
:102260000E941F09CE0101960E947B08009179050A
:1022700010917A0510161106A4F18AE3882E82E0E7
:10228000982E9AE2C92E92E0D92EF40161917191B3
:102290004F0188EE93E000D57B01F60161917191C9
:1022A0006F01072E000C880B990BA7010E94E20218
:1022B000C701880F991F880F991FB301EDD4072E0E
:1022C000000C880B990B0E94A502F2E48F16F2E035
:1022D0009F06D9F60F5F1F4F10937A05009379057B
:1022E000C5CF10927A051092790540E060E08FEF3B
:1022F0000E94FD0568E973E0CE0101960E946B081B
:10230000CE0101960E941908CE0101960E947B0819
:1023100061E084E00E944F0260E084E00E942202BB
:10232000C3010197F1F761E084E00E94220283E299
:1023300090E00197F1F760E084E00E94220260E003
:1023400084E00E944F02E2ECF1E06491ECE7F1E0FE
:102350008491E82FF0E0EE0FFF1FEC51FF4F8591C5
:10236000949100E412E42FE030E0462F60DB1B0183
:102370002C01211431044104510439F0FFEF2F1ACC
:102380003F0A4F0A5F0A8FE05822009179051091A9
:102390007A0510161106A4F162E5862E62E0962EEB
:1023A00072E4C72E72E0D72EF401619171914F0152
:1023B00088EE93E071D47B01F601619171916F0118
:1023C000072E000C880B990BA7010E94E202C7019F
:1023D000880F991F880F991FB3015ED4072E000C38
:1023E000880B990B0E94A50282E692E08815990558
:1023F000D9F60F5F1F4F10937A0500937905C5CF6B
:1024000010927A0510927905B201A101CE010796CA
:102410000E94C207BE01695F7F4FCE0101960E94F4
:1024200063086FE973E0CE0101960E9475070E9470
:102430007D06CE0101960E947B08CE0107960E9480
:102440007B08B201A101CE0101960E94C2076BEA8E
:1024500073E0CE0107960E946B08BE016F5F7F4F4D
:10246000CE0107960E948907BC0182EC97E00E948A
:102470004E08CE0107960E947B08CE0101960E946D
:102480007B0840EC60EC80EC0E94FD0562EC77E09C
:10249000CE0101960E94630840E050E060E87FE3CF
:1024A000CE0101960E94F108CE0101960E947B08A0
:1024B000C201B10124E930E040E050E016D3490107
:1024C0005A01C201B1012AE330E040E050E00DD3EF
:1024D00019012A0160917305709174058091750549
:1024E0009091760562197309840995090FD22DEC34
:1024F0003CEC4CEC5DE337D324EF3FE347EB5CE38C
:1025000040D299D32092730530927405409275059C
:10251000509276056B017C01F7FE08C0F094E094C0
:10252000D094C094C11CD11CE11CF11CB501A401C4
:10253000CE0101960E94C2074D815E8169817A8138
:102540008BE097E00E94A503CE0101960E947B08D4
:1025500066EB73E08BE097E00E946E06B501A40184
:10256000CE0101960E94C2076CEB73E0CE01079684
:102570000E946B08BE016F5F7F4FCE0107960E94DD
:102580008907BC0182EC97E00E944E08CE010796B5
:102590000E947B08CE0101960E947B0862EC77E0E6
:1025A000CE0101960E94630840E050E060E87FE3BE
:1025B000CE0101960E94F108CE0101960E947B088F
:1025C0002AE0B201A1018BE097E00E94930661EC42
:1025D00073E08BE097E00E946E06B201A101CE018C
:1025E00001960E94C20767EC73E0CE0107960E9435
:1025F0006B08BE016F5F7F4FCE0107960E9489076F
:10260000BC0182EC97E00E944E08CE0107960E9422
:102610007B08CE0101960E947B0862EC77E0CE0138
:1026200001960E94630840E050E060E87FE3CE013D
:1026300001960E94F108CE0101960E947B082AE0D3
:10264000B701A6018BE097E00E9493066CEC73E063
:102650008BE097E00E946E0662EB72E08BE097E001
:102660000E946E06B701A601CE0107960E94C2071E
:10267000BE01695F7F4FCE0101960E94630861ED44
:1026800073E0CE0101960E947507BC0182EC97E0D1
:102690000E944E08CE0101960E947B08CE0107964B
:1026A0000E947B0862EC77E0CE0101960E946308ED
:1026B00040E050E060E87FE3CE0101960E94F1081F
:1026C000CE0101960E947B08E1E0F0E0F093010268
:1026D000E09300020E94830829CD61E083E00E941C
:1026E000220280917705909178052091B60730916C
:1026F000B707281739070CF419CD01969093780580
:102700008093770513CD0E94A50868ED73E0CE0194
:1027100001960E946B08CE0101960E947B08809171
:102720007B0590917C052091B4073091B50728175F
:1027300039072CF0019690937C0580937B050E94CD
:10274000D00415CC2091B4073091B50782179307B8
:1027500031F78091040290910502029701F78AEE09
:1027600093E00E94FF0680E8898380EC8A83CE0193
:1027700001960E94AB050E94D60228EE33E040E0AD
:1027800050E0CFD1BA01A9012AE088EB97E00E947E
:10279000930668EE73E080E090E00E94A5020E943C
:1027A000A5080091020210910302023011050CF0FD
:1027B00046C0E0907905F0907A051E141F04ACF134
:1027C00032E7A32E32E0B32E42E6842E42E0942E6E
:1027D000F501619171915F0188EE93E05DD26B012B
:1027E000F401619171914F01072E000C880B990B38
:1027F000A6010E94E202C601880F991F880F991F47
:10280000B3014AD2072E000C880B990B0E94A50237
:10281000F2E8AF16F2E0BF06D9F68FEFE81AF80A31
:10282000F0927A05E0927905C4CF10927A05109261
:1028300079050F5F1F4F10930302009302020E945D
:1028400065066DCFBB274A3031F4992322F4BDE2EF
:10285000909581959F4F30C0BB272A3051F4992322
:1028600042F4BDE290958095709561957F4F8F4FB2
:102870009F4F01C0BB27FA01A62F62177105810582
:102880009105330B30FB66F0AA27660F771F881F70
:10289000991FAA1FA21710F0A21B63953850A9F721
:1028A000A05DAA3308F0A95DA19336F7B111B193E9
:1028B0001082CA0119C0BB27FB015527AA27880F20
:1028C000991FAA1FA41710F0A41B83955051B9F7A4
:1028D000A05DAA3308F0A95DA193009779F7B11123
:1028E000B1931192CB0100C0DC01FC01672F719103
:1028F0007723E1F7329704C07C916D9370836291E6
:10290000AE17BF07C8F30895E89409C097FB3EF4DB
:1029100090958095709561957F4F8F4F9F4F99232C
:10292000A9F0F92F96E9BB279395F69587957795AA
:102930006795B795F111F8CFFAF4BB0F11F460FF6A
:102940001BC06F5F7F4F8F4F9F4F16C0882311F0C2
:1029500096E911C0772321F09EE8872F762F05C0D6
:10296000662371F096E8862F70E060E02AF09A9571
:10297000660F771F881FDAF7880F9695879597F966
:1029800008950BD078C069D028F06ED018F0952348
:1029900009F05AC05FC01124A2C07ED0A0F3959F59
:1029A000D1F3950F50E0551F629FF001729FBB2736
:1029B000F00DB11D639FAA27F00DB11DAA1F649FE2
:1029C0006627B00DA11D661F829F2227B00DA11D95
:1029D000621F739FB00DA11D621F839FA00D611D1B
:1029E000221F749F3327A00D611D231F849F600D3C
:1029F000211D822F762F6A2F11249F5750408AF075
:102A0000E1F088234AF0EE0FFF1FBB1F661F771F00
:102A1000881F91505040A9F79E3F510570F014C097
:102A20005EC05F3FECF3983EDCF386957795679543
:102A3000B795F795E7959F5FC1F7FE2B880F911D1E
:102A40009695879597F9089597F99F6780E870E0C4
:102A500060E008959FEF80EC089500240A94161614
:102A6000170618060906089500240A94121613067C
:102A7000140605060895092E0394000C11F488230A
:102A800052F0BB0F40F4BF2B11F460FF04C06F5F26
:102A90007F4F8F4F9F4F089557FD9058440F551FFC
:102AA00059F05F3F71F04795880F97FB991F61F0D0
:102AB0009F3F79F087950895121613061406551F47
:102AC000F2CF4695F1DF08C0161617061806991FB3
:102AD000F1CF86957105610508940895E894BB27A8
:102AE00066277727CB0197F90895052E97FB16F4F3
:102AF00000940FD057FD05D014D007FC02D046F447
:102B000008C050954095309521953F4F4F4F5F4FEE
:102B1000089590958095709561957F4F8F4F9F4F49
:102B20000895A1E21A2EAA1BBB1BFD010DC0AA1F0E
:102B3000BB1FEE1FFF1FA217B307E407F50720F026
:102B4000A21BB30BE40BF50B661F771F881F991FA1
:102B50001A9469F760957095809590959B01AC01EA
:102B6000BD01CF0108950CD086CF7EDF40F075DF28
:102B700030F021F45F3F19F067CF5111B0CF6ACF29
:102B80008BDF98F39923C9F35523B1F3951B550BAC
:102B9000BB27AA2762177307840738F09F5F5F4F30
:102BA000220F331F441FAA1FA9F333D00E2E3AF071
:102BB000E0E830D091505040E695001CCAF729D08B
:102BC000FE2F27D0660F771F881FBB1F26173707DA
:102BD0004807AB07B0E809F0BB0B802DBF01FF270A
:102BE00093585F4F2AF09E3F510568F02DCF77CF65
:102BF0005F3FECF3983EDCF3869577956795B79544
:102C0000F7959F5FC9F7880F911D9695879597F95E
:102C10000895E1E0660F771F881FBB1F62177307D7
:102C20008407BA0720F0621B730B840BBA0BEE1FEC
:102C300088F7E095089504D06894B11150CF0895B5
:102C400033DF88F09F5790F0B92F9927B751A0F044
:102C5000D1F0660F771F881F991F1AF0BA95C9F730
:102C600012C0B13081F03ADFB1E0089537CF672F5D
:102C7000782F8827B85F39F0B93FCCF386957795E0
:102C80006795B395D9F73EF49095809570956195C9
:102C90007F4F8F4F9F4F089597FB072E16F4009498
:102CA00006D077FD08D013D007FC05D03EF49095F0
:102CB00081959F4F0895709561957F4F0895EE0F10
:102CC000FF1F881F8BBF0790F691E02D1994AA1B58
:102CD000BB1B51E107C0AA1FBB1FA617B70710F007
:102CE000A61BB70B881F991F5A95A9F78095909539
:102CF000BC01CD0108950F931F93CF93DF938230D2
:102D0000910510F482E090E0E091EB08F091EC087E
:102D100030E020E0B0E0A0E0309799F421153105D3
:102D200009F44AC0281B390B24303105D8F58A81B3
:102D30009B816115710589F1FB0193838283FE01FB
:102D400011C0408151810281138148175907E0F079
:102D50004817590799F4109761F012960C9312973F
:102D600013961C933296CF01DF91CF911F910F9153
:102D700008950093EB081093EC08F4CF211531056A
:102D800051F04217530738F0A901DB019A01BD0148
:102D9000DF01F801C1CFEF01F9CF9093EC088093E8
:102DA000EB08CDCFFE01E20FF31F819391932250E8
:102DB000310939832883D7CF2091E9083091EA0877
:102DC000232B41F420910A0230910B023093EA0840
:102DD0002093E9082091080230910902211531055C
:102DE00041F42DB73EB740910C0250910D02241BC7
:102DF000350BE091E908F091EA08E217F307A0F437
:102E00002E1B3F0B2817390778F0AC014E5F5F4F40
:102E10002417350748F04E0F5F1F5093EA08409380
:102E2000E908819391939FCFF0E0E0E09CCFCF93AE
:102E3000DF930097E9F0FC01329713821282A09190
:102E4000EB08B091EC08ED0130E020E01097A1F420
:102E500020813181820F931F2091E9083091EA0887
:102E60002817390709F061C0F093EA08E093E908F0
:102E7000DF91CF910895EA01CE17DF07E8F54A8187
:102E80005B819E0141155105B1F7E901FB83EA839E
:102E900049915991C40FD51FEC17FD0761F480814A
:102EA00091810296840F951FE9019983888382811D
:102EB00093819B838A83F0E0E0E012968D919C9150
:102EC00013970097B9F52D913C911197CD0102967A
:102ED000820F931F2091E9083091EA0828173907DB
:102EE00039F6309751F51092EC081092EB08B09338
:102EF000EA08A093E908BCCFD383C2834081518103
:102F0000840F951FC817D90761F44E5F5F4F888102
:102F10009981480F591F518340838A819B819383F4
:102F200082832115310509F0B0CFF093EC08E093CE
:102F3000EB089ECFFD01DC01C0CF13821282D7CFF8
:102F40004F925F926F927F928F929F92AF92BF92B9
:102F5000CF92DF92EF92FF920F931F93CF93DF9365
:102F60008C01009791F4CB01DF91CF911F910F91CC
:102F7000FF90EF90DF90CF90BF90AF909F908F9099
:102F80007F906F905F904F90B6CEFC01E60FF71FD9
:102F90009C0122503109E217F30708F4AAC0D901B5
:102FA000CD91DC911197C617D70718F1C530D1051F
:102FB00070F0CE0104978617970748F0C61BD70B11
:102FC0002297C193D1936D937C93CF0130DFC801D9
:102FD000DF91CF911F910F91FF90EF90DF90CF90F5
:102FE000BF90AF909F908F907F906F905F904F9029
:102FF00008955B01AC1ABD0A4C018C0E9D1EA09178
:10300000EB08B091EC08512C412CF12CE12C1097DD
:1030100031F58091E9089091EA088815990509F041
:103020005CC04616570608F058C08091080290917F
:103030000902009741F48DB79EB740910C02509160
:103040000D02841B950BE817F90708F052C0F093A6
:10305000EA08E093E908F90171836083B8CF8D91A4
:103060009C91119712966C90129713967C901397DF
:10307000A815B90559F56C0142E0C40ED11CCA145B
:10308000DB0420F1AC014A195B09DA0112961597AD
:1030900080F06282738251834083D9016D937C9367
:1030A000E114F10471F0D7011396FC93EE9312979B
:1030B0008ECF22968C0F9D1FF90191838083F3019F
:1030C000EFCFF093EC08E093EB0881CF4816590658
:1030D00008F42C017D01D3019ACFCB010CDE7C01D9
:1030E000009739F0AE01B80107D0C801A0DE870112
:1030F0006ECF10E000E06BCFFB01DC0102C001905D
:103100000D9241505040D8F70895FB01DC01019029
:103110000D920020E1F7089511E0C3E0D1E000E056
:1031200005C0802FFE01CBDD2196011DC430D107E3
:0A31300080E00807B1F7F894FFCF24
:10313A00FFFF0100FFFF01000000ED088000880189
:10314A008801B80188010B02EE010000080008009E
:10315A0004000400040004000400F7004100F70022
:10316A004100F7000000F7004100040002000400DB
:10317A000200EE018300EE018300EE010000EE0181
:10318A008300040004000400040004000400040096
:10319A0004000601C400C400DC00C4000000F700FB
:1031AA0006010400080008000400040004000400EA
:1031BA000400000000006504A503EB03B1041C042D
:1031CA00FA030E04000000007D0551050C06A20357
:1031DA0019050605F70400000000D405A5030C062E
:1031EA00F6040D0A0057616974696E67206F6E20D4
:1031FA0042746E0046696E612E20526573657400D2
:10320A0046696E612E202052657365740032303330
:10321A003800546F70206F6620736574757020666D
:10322A006F72204C43440053657475702066696E52
:10323A00613A200072657475726E2066726F6D2035
:10324A00736574757000206C6F6F706B6E740020FC
:10325A00646F6E65466C616720206C6E3432330091
:10326A00746F70206F66206C6F6F7000646F536F9D
:10327A006D65576F726B0020776F726B6B6E74009F
:10328A0020207768696C652028776F726B6B6E7483
:10329A00203C20656E644F6E2900427574746F6E0F
:1032AA0020507265737365640042757A7A204F6E96
:1032BA00204C4544204F6666007061737320746F1A
:1032CA002072756E67756E00414354495645002059
:1032DA006475726174696F6E2C2000647572617412
:1032EA00696F6E3A200020696E2C2000696E3A20C0
:1032FA000020636D2C2000636D3A2000206D7068F9
:10330A0000206D70682C2000646F536F6D65576FD5
:10331A00726B282920656E64290053686F77206DC7
:06332A00696C6C730000E9
:00000001FF
